:100000000C94AC000C94D4000C94D4000C941D0BF4
:100010000C94410B0C94650B0C94D4000C94D400FC
:100020000C94D4000C94D4000C94D4000C94D40000
:100030000C94D4000C94D4000C94D4000C94D400F0
:100040000C946F0F0C94D4000C9434060C947B0623
:100050000C94D4000C94D4000C94D4000C94D400D0
:100060000C94D4000C94D40000C2010001001100D3
:1000700011000C0000E100000A002500250021000D
:10008000009600001900390039003600127A00008D
:100090001F004600460044008070000022004D0012
:1000A0004D004A00004B00003600750075007200DC
:1000B000403800004A009C009C0099008025000008
:1000C0007200EC00EC00E900C0120000E900DA0167
:1000D000DA01D70160090000D701B603B603B30304
:1000E000B0040000B3036E076E076B072C0100001D
:1000F000DC0EC11DC11DBE1D000000002400270034
:100100002A0000000000250028002B00000000004D
:100110002300260029000404040404040404020249
:100120000202020203030303030301020408102076
:100130004080010204081020010204081020000081
:100140000007000201000003040600000000000098
:1001500000000401F207FD0011241FBECFEFD8E01C
:10016000DEBFCDBF11E0A0E0B1E0EEEEFCE202C0E8
:1001700005900D92A039B107D9F712E0A0E9B1E0DE
:1001800001C01D92A53CB107E1F711E0C6E5D1E041
:1001900004C02297FE010E941B14C235D107C9F783
:1001A0000E94600F0C946A160C9400008130910537
:1001B000B1F46F5F7F4F01F580E991E060915701E5
:1001C0004091590120E00E94E00D8CEA91E060919D
:1001D0005B0140915D0120E00E94E00D0895892BB4
:1001E00059F46F5F7F4F41F48CEA91E00E94670CF5
:1001F00080E991E00E94670C089580E090E06FEF45
:100200007FEF0E94D600089581E090E06FEF7FEFCE
:100210000E94D60008958091CB01882361F08091DF
:10022000610161E00E94F1108091630161E00E9430
:10023000F1101092CB018091CA01882339F080918E
:10024000650161E00E94F1101092CA018091CC0119
:10025000882311F01092CC0108951092CB01809167
:10026000CA01882379F48091610161E00E94F11054
:100270008091630161E00E94F11081E08093CC01E4
:100280008093CA0108951092CA018091CB018823FE
:10029000D1F48091650161E00E94F11064EF71E09A
:1002A00080E090E00E94DD0F8091630160E00E9499
:1002B000F1108091610160E00E94F11081E0809373
:1002C000CC018093CB0108950F931F93082F162F15
:1002D00061E00E949E10812F61E00E949E10802F9D
:1002E00061E00E94F110812F61E00E94F110812FE6
:1002F00060E00E94F1101F910F9108951F93CF931A
:10030000DF93182F60E00E949E10C0E0D0E06AE00A
:1003100070E080E090E00E94DD0F812F0E942411A8
:10032000009761F02196C436D10589F7019731F421
:1003300080E991E062E071E00E94070ADF91CF91CD
:100340001F910895CF92DF92EF92FF920F931F9328
:10035000CF93DF93C82ED62E7A01C0E0D0E000E024
:1003600010E017C08D2D61E00E94F1106AE070E08E
:1003700080E090E00E94DD0FCC0FDD1F8C2D0E94ED
:100380002411C80FD91F8D2D60E00E94F1100F5F5E
:100390001F4F0E151F0534F3CE01DF91CF911F9132
:1003A0000F91FF90EF90DF90CF900895CF92DF9262
:1003B000EF92FF920F931F93F82ED92EE62EC72EA1
:1003C00060E00E949E108E2D61E00E949E108F2D95
:1003D0009D2D6E2D7C2D48E050E00E94A201182F2B
:1003E00000E08F2D61E00E949E108F2D61E00E9441
:1003F000F1108F2D60E00E94F1108E2D61E00E94BF
:10040000F1108E2D60E00E94F1108F2D60E00E94AF
:100410009E108F2D9D2D6E2D7C2D48E050E00E946A
:10042000A201082B192BC8011F910F91FF90EF908B
:10043000DF90CF900895FF920F931F93182FF62E01
:10044000042F862F61E00E949E10802F61E00E94A1
:100450009E108F2D61E00E94F110802F61E00E94BC
:10046000F1108F2D60E00E94F110802F60E00E945B
:10047000F110802F61E00E94F1108F2D61E00E9449
:10048000F110802F60E00E94F1108F2D602F41E06D
:10049000212F0E945411802F61E00E94F1108F2DB6
:1004A00060E00E949E108F2D0E942411892B31F054
:1004B00080E991E06EE071E00E94070A802F60E021
:1004C0000E94F1108F2D0E942411019731F080E9D4
:1004D00091E06AE171E00E94070A1F910F91FF907D
:1004E0000895AF92BF92CF92DF92EF92FF920F9357
:1004F0001F936091530170915401409155015091A7
:10050000560180914F01909150010E941B028091F1
:100510005301909154010E947E01609155017091A8
:10052000560180915301909154010E94D6017C01A3
:100530006091550170915601809153019091540141
:100540000E9464010027F7FC0095102FC801B70135
:100550000E949A127B018C0124E533EE45E25DE3B3
:100560000E944E1320E030E040E850E40E949611D3
:100570005B016C01C801B70122EA37EE4BE356EB91
:100580000E944E13A80197010E944E139B01AC01DB
:10059000C601B5010E9497110E946712CB011F91FD
:1005A0000F91FF90EF90DF90CF90BF90AF900895A4
:1005B000EF92FF920F931F9360915301709154013A
:1005C000409155015091560180914D0190914E01FD
:1005D0000E941B0280915301909154010E947E0160
:1005E0006091550170915601809153019091540191
:1005F0000E94D6017C016091550170915601809155
:100600005301909154010E9464010027F7FC00956A
:10061000102FC801B7010E949A122CEB34E743E96E
:100620005CE30E944E1320E030E040E252E40E947E
:1006300096111F910F91FF90EF900895AF92BF9286
:10064000CF92DF92EF92FF920F931F93DF93CF939E
:10065000CDB7DEB72E970FB6F894DEBF0FBECDBF75
:10066000D82EC92E66E271E00E94F60EEE24FF2419
:100670005E010894A11CB11C07C083E0E816F104D8
:1006800019F444E0E42EF12C8091510160E00E94C5
:10069000F110EEBC0DB407FEFDCF8EB51EBC0DB43F
:1006A00007FEFDCF8EB5082F10E08091510161E06B
:1006B0000E94F110A8014F70507082E0E816F1041A
:1006C000C1F4C8018073907034E0969587953A958F
:1006D000E1F78230910519F484E190E005C08130A2
:1006E000910511F48AE090E0840F951F9E838D831D
:1006F0006AC084E0E816F104B9F4C8018073907010
:1007000024E0969587952A95E1F79C0103E0220F56
:10071000331F0A95E1F7880F991F280F391F240FFF
:10072000351F3A8729874FC085E0E816F104B9F4F0
:10073000C80180719070B4E096958795BA95E1F7FD
:100740009C01A3E0220F331FAA95E1F7880F991FA0
:10075000280F391F240F351F3C872B8734C086E0B4
:10076000E816F104A9F4C801E4E096958795EA95A6
:10077000E1F79C0173E0220F331F7A95E1F7880FB0
:10078000991F280F391F240F351F3E872D871BC047
:10079000F701EE0FFF1FEA0DFB1DC8018077907077
:1007A00014E0969587951A95E1F79C01B3E0220F26
:1007B000331FBA95E1F7880F991F280F391F240FAF
:1007C000351F318320830894E11CF11C87E0E81673
:1007D000F1040CF452CF8D2D9C2D67E271E00E9444
:1007E000B30E6D857E858D2D9C2D0E94820E8D2DE4
:1007F0009C2D6AE271E00E94B30E0B851C850A30C5
:10080000110534F48D2D9C2D6CE271E00E94B30E25
:100810008D2D9C2DB8010E94820E8D2D9C2D6AE29B
:1008200071E00E94B30E09851A850A30110534F46F
:100830008D2D9C2D6CE271E00E94B30E8D2D9C2DB0
:10084000B8010E94820E8D2D9C2D6EE271E00E94F7
:10085000B30E0D811E810A30110534F48D2D9C2DAF
:100860006EE271E00E94B30E8D2D9C2DB8010E94A6
:10087000820E8D2D9C2D60E371E00E94B30E0B81E2
:100880001C810A30110534F48D2D9C2D6CE271E031
:100890000E94B30E8D2D9C2DB8010E94820E8D2DCD
:1008A0009C2D2E960FB6F894DEBF0FBECDBFCF9114
:1008B000DF911F910F91FF90EF90DF90CF90BF904D
:1008C000AF9008958091510161E00E949E100E94B6
:1008D0006F0A81E00E94610A8CE00E946A0A80919E
:1008E000510160E00E94F1108EE88EBD0DB407FE4C
:1008F000FDCF8EB580E68EBD0DB407FEFDCF8EB563
:100900008091510161E00E94F11064E670E080E0A6
:1009100090E00E94DD0F089580E991E06EEF0E9463
:10092000AB0C08950E948C0480E991E061E00E9484
:10093000AB0C089580915D0161E00E949E10809152
:100940005B0160E00E949E1080915F0161E00E9467
:100950009E108091610161E00E949E108091630170
:1009600061E00E949E108091650161E00E949E10EE
:1009700089E061E070E00E943E108091610161E0D9
:100980000E94F1108091630161E00E94F11080915A
:10099000650161E00E94F11080E991E040E855E2D4
:1009A00060E070E00E94890B8CEA91E040E855E23B
:1009B00060E070E00E94890B85E592E040E855E236
:1009C00060E070E00E94C40668EE73E080E090E0B2
:1009D0000E94DD0F0E9462040E94920408950E940A
:1009E0008C0480E991E060EC0E94AB0C08950E94B9
:1009F0008C0480E991E060E80E94AB0C08952F928E
:100A00003F924F925F926F927F928F929F92AF929E
:100A1000BF92CF92DF92EF92FF920F931F93DF93DB
:100A2000CF93CDB7DEB765970FB6F894DEBF0FBE94
:100A3000CDBF8E010F5F1F4FC8010E941E030E9491
:100A4000D8023B014C010E9471027C0185E592E0D5
:100A5000B8010E944D0A62E370E080E090E00E94DD
:100A6000DD0F0E94F70480E991E0B8010E941A0AA4
:100A700062E370E080E090E00E94DD0F8CEA91E09C
:100A8000B8010E941A0A8CEA91E062E371E00E94C8
:100A900066096091C8017091C9018CEA91E04AE051
:100AA00050E00E9453098CEA91E062E371E00E94F9
:100AB00066098CEA91E0B401A30122E030E00E94D3
:100AC000040A8CEA91E062E371E00E9466098E01FB
:100AD000085F1F4FC801B7014AE00E94290F8CEA46
:100AE00091E0B8010E941A0AC8010E945A0F8CEACC
:100AF00091E064E371E00E94070A0E94EF0480E93C
:100B000091E06EE271E00E94660980E991E0B40133
:100B1000A30122E030E00E94040A80E991E066E34C
:100B200071E00E9466098E01015F1F4FC801B70185
:100B30004AE00E94290F80E991E0B8010E941A0A58
:100B4000C8010E945A0FE0906701F090680100917F
:100B5000690110916A01A0906B01B0906C01C09086
:100B60006D01D0906E01C801B701A60195010E94E8
:100B700096111B012C01C801B701A60195010E9425
:100B800097117B018C01C401B301A80197010E9458
:100B90004A13181644F40E942D0180E991E069E39C
:100BA00071E00E946609C401B301A20191010E9493
:100BB000FB11882344F40E94430180E991E06FE334
:100BC00071E00E946609C201B10120916B01309170
:100BD0006C0140916D0150916E010E9497119B0133
:100BE000AC01C401B3010E944A13181684F4C40175
:100BF000B301A80197010E94FB11882344F40E94CD
:100C00000B0180E991E069E371E00E94660980913F
:100C1000C8019091C90101969093C9018093C801C0
:100C200064EF71E080E090E00E94DD0FCE0101965C
:100C30000E945A0F65960FB6F894DEBF0FBECDBF67
:100C4000CF91DF911F910F91FF90EF90DF90CF90A8
:100C5000BF90AF909F908F907F906F905F904F90DC
:100C60003F902F90089508951F920F920FB60F9204
:100C700011242F933F934F938F939F93EF93FF9361
:100C80004091C60020910D0230910E022F5F3F4F20
:100C90002F73307080910F0290911002281739073E
:100CA00059F0E0910D02F0910E02E353FE4F4083A4
:100CB00030930E0220930D02FF91EF919F918F913F
:100CC0004F913F912F910F900FBE0F901F9018954D
:100CD000E0916102F0916202E05CFF4F819191919D
:100CE00020813181821B930B8F739070892B11F0BF
:100CF0000E94330608951F920F920FB60F9211248F
:100D00002F933F934F935F936F937F938F939F9313
:100D1000AF93BF93EF93FF93209151023091520212
:100D200080915302909154022817390731F4809131
:100D3000C1008F7D8093C10016C0E0915302F091F5
:100D40005402EF5EFD4F4081809153029091540216
:100D5000019660E470E00E94D01390935402809357
:100D600053024093C600FF91EF91BF91AF919F91C5
:100D70008F917F916F915F914F913F912F910F9044
:100D80000FBE0F901F901895AF92BF92DF92EF9217
:100D9000FF920F931F93CF93DF93EC017A018B01A6
:100DA000DD24403081EE580780E0680780E0780756
:100DB00011F0DD24D39491E0A92EB12CEC89FD89AA
:100DC000DD2069F0C5010E8C02C0880F991F0A94BE
:100DD000E2F7808360E079E08DE390E005C0108267
:100DE00060E874E88EE190E0A80197010E94E313A7
:100DF00021503040404050405695479537952795B3
:100E000080E12030380720F0DD2011F0DD24D6CF3E
:100E1000E889F9893083EA89FB892083EE89FF8993
:100E2000408121E030E0C9010A8C02C0880F991F7F
:100E30000A94E2F7482B4083EE89FF894081C9017B
:100E40000B8C02C0880F991F0A94E2F7482B40834D
:100E5000EE89FF894081C9010C8C02C0880F991F5F
:100E60000A94E2F7482B4083EE89FF8980810D8C3C
:100E700002C0220F331F0A94E2F720952823208313
:100E8000DF91CF911F910F91FF90EF90DF90BF9076
:100E9000AF900895DC011C96ED91FC911D97E05CEC
:100EA000FF4F2191319180819181281B390B2F7344
:100EB0003070C9010895DC011C96ED91FC911D97DD
:100EC000E05CFF4F20813181E054F040DF01AE5BF8
:100ED000BF4F8D919C9111972817390719F42FEF67
:100EE0003FEF07C08D919C91E80FF91F8081282F5B
:100EF00030E0C9010895DC011C96ED91FC911D972D
:100F0000E05CFF4F20813181E054F040DF01AE5BB7
:100F1000BF4F8D919C9111972817390719F42FEF26
:100F20003FEF10C08D919C911197E80FF91F208120
:100F30008D919C91119701968F73907011969C934F
:100F40008E9330E0C9010895FC0186859785DC0108
:100F5000A05CBF4FFC01EE5BFF4F2D913C911197C0
:100F60008081918128173907C1F70895CF93DF93C6
:100F7000EC01462FEE85FF85E05CFF4F808191817B
:100F8000E054F040019660E470E00E94D0139C01B0
:100F9000DF01AE5BBF4F8D919C91119728173907E8
:100FA000D1F3E05CFF4F80819181E054F040E80F85
:100FB000F91F4083EE85FF85E05CFF4F318320837E
:100FC000EE89FF89208181E090E00D8C02C0880FBE
:100FD000991F0A94E2F7282B208381E090E0DF91AB
:100FE000CF910895109258021092570288EE93E024
:100FF000A0E0B0E08093590290935A02A0935B0264
:10100000B0935C0283E791E090935602809355027F
:101010008DEC91E0909362028093610281E192E015
:10102000909364028093630285EC90E09093660253
:101030008093650284EC90E090936802809367024D
:1010400080EC90E090936A028093690281EC90E0DA
:1010500090936C0280936B0286EC90E090936E020A
:1010600080936D0284E080936F0283E0809370022E
:1010700087E08093710285E08093720281E0809323
:1010800073020895CF92DF92EF92FF920F931F9316
:10109000CF93DF937C016B018A01C0E0D0E00FC0E9
:1010A000D6016D916D01D701ED91FC910190F08118
:1010B000E02DC7010995C80FD91F01501040011537
:1010C000110571F7CE01DF91CF911F910F91FF9024
:1010D000EF90DF90CF900895EF92FF920F931F93C0
:1010E0008C01DC01ED91FC910190F081E02D6DE02F
:1010F00009957C01D801ED91FC910190F081E02DE2
:10110000C8016AE009959C012E0D3F1DC9011F9180
:101110000F91FF90EF900895CF93DF93DB010D9037
:101120000020E9F71197A61BB70BEC01E881F981C4
:101130000280F381E02DAD010995DF91CF910895F3
:101140004F925F927F928F929F92AF92BF92CF9277
:10115000DF92EF92FF920F931F93DF93CF93CDB760
:10116000DEB7A1970FB6F894DEBF0FBECDBF2C013E
:10117000742ECB01223008F42AE019A231E2C32EEA
:10118000D12CCC0EDD1E822E9924AA24BB24672DDF
:10119000752FA50194010E94E31379018A01C8010A
:1011A000B701A50194010E94B113472D461B089475
:1011B000C108D1084A3014F4405D01C0495CF60111
:1011C0004083E114F1040105110521F07E2C5F2D0F
:1011D000C801DDCFC201B6010E948C08A1960FB6EE
:1011E000F894DEBF0FBECDBFCF91DF911F910F915D
:1011F000FF90EF90DF90CF90BF90AF909F908F9037
:101200007F905F904F900895DC012115310541F4E6
:10121000ED91FC910190F081E02D642F09950895E6
:101220000E94A0080895CF92DF92EF92FF920F9351
:101230001F93CF93DF93EC016A017B0121153105E8
:1012400041F4E881F9810190F081E02D642F099546
:101250001FC02A303105D1F477FF17C0E881F9812A
:101260000190F081E02D6DE209958C01442755270E
:10127000BA014C195D096E097F09CE012AE00E946E
:10128000A0089801280F391F04C02AE00E94A00876
:101290009C01C901DF91CF911F910F91FF90EF90B9
:1012A000DF90CF900895EF92FF920F931F937B01F1
:1012B0009A010027F7FC0095102FB801A7010E94A2
:1012C00013091F910F91FF90EF9008950E948C08D1
:1012D00008957F928F929F92AF92BF92CF92DF92AA
:1012E000EF92FF920F931F93CF93DF934C017A01FC
:1012F0008B01722ECB01BA0120E030E040E050E0DB
:101300000E94FB1187FD03C0C0E0D0E00EC0D401F5
:10131000ED91FC910190F081E02DC4016DE2099501
:10132000EC0117FB109517F9109520E030E040E034
:101330005FE3AA240BC0CA01B90120E030E040E21B
:1013400051E40E94FF119B01AC01A394A71498F3F0
:10135000C801B7010E9497115B016C010E946C12D9
:101360007B018C01C401B801A7012AE030E00E9492
:101370000409C80FD91F772039F0C40165E471E072
:101380000E948C08C80FD91FC801B7010E9498128B
:101390009B01AC01C601B5010E94961124C020E05A
:1013A00030E040E251E40E944E137B018C010E9428
:1013B00067125B016C01CC24B7FCC094DC2CC40127
:1013C000B601A5012AE030E00E941309C80FD91F19
:1013D000C601B5010E949A129B01AC01C801B70178
:1013E0000E9496117A947720D1F6CE01DF91CF91A9
:1013F0001F910F91FF90EF90DF90CF90BF90AF9033
:101400009F908F907F9008950E9469090895EF92B0
:10141000FF920F931F937C010E948C088C01C701DF
:101420000E946C08080F191FC8011F910F91FF90AF
:10143000EF900895AF92BF92CF92DF92EF92FF921A
:101440000F931F93CF93DF935C016B01EE24FF2476
:10145000C0E0D0E010C0D501ED91FC910081118178
:10146000C601BE010E940E0E682FC501F801099544
:10147000E80EF91E2196F60184819581C817D907D7
:1014800050F3C701DF91CF911F910F91FF90EF9023
:10149000DF90CF90BF90AF900895EF92FF920F939F
:1014A0001F937C010E941A0A8C01C7010E946C08DC
:1014B0009C01200F311FC9011F910F91FF90EF90E8
:1014C0000895882319F48CB5806202C08CB58F7D95
:1014D0008CBD08959CB5937F982B9CBD08958DE09D
:1014E00061E00E949E108BE061E00E949E108AE005
:1014F00061E00E949E108DE060E00E94F1108BE0A0
:1015000060E00E94F1108AE061E00E94F1108CB569
:1015100080618CBD8CB580648CBD0895FC01809188
:101520007402909175028E179F0711F480E0089560
:10153000838D8E7F838F9FB7F8941092B60280912F
:10154000B6028093B702F0937502E09374029FBFD6
:1015500081E008950F931F93CF93DF93FC01838D58
:10156000A685B7859585082F027081FF05C08C91EF
:10157000892309F454C004C08C91892309F04FC019
:101580008389948920E001972FEF8F3F9207D9F745
:10159000C589D689A685B785758560E031E040E0CC
:1015A00050E010E0CE01212F01972FEF8F3F9207DF
:1015B000D9F78C91872311F0632B03C0832F80957B
:1015C0006823330F4F5F5F4F4830510559F78789C4
:1015D000908D20E001972FEF8F3F9207D9F70111EF
:1015E00060958091B6022091B70290E001968F73CA
:1015F000907030E08217930779F0E091B602F0E046
:10160000EA58FD4F60838091B60290E001968F7397
:1016100090708093B60203C0838D8160838FDF91C9
:10162000CF911F910F91089580917402909175024E
:10163000009711F00E94AA0A08951F920F920FB608
:101640000F9211242F933F934F935F936F937F9348
:101650008F939F93AF93BF93EF93FF930E94140BCD
:10166000FF91EF91BF91AF919F918F917F916F917A
:101670005F914F913F912F910F900FBE0F901F9050
:1016800018951F920F920FB60F9211242F933F932C
:101690004F935F936F937F938F939F93AF93BF937A
:1016A000EF93FF930E94140BFF91EF91BF91AF91C5
:1016B0009F918F917F916F915F914F913F912F916A
:1016C0000F900FBE0F901F9018951F920F920FB69C
:1016D0000F9211242F933F934F935F936F937F93B8
:1016E0008F939F93AF93BF93EF93FF930E94140B3D
:1016F000FF91EF91BF91AF919F918F917F916F91EA
:101700005F914F913F912F910F900FBE0F901F90BF
:101710001895CF92DF92EF92FF920F931F93CF9382
:10172000DF93EC017A018B011A8E198E188E1F8AB5
:101730001E8A1D8A1C8A1B8A20E030E06901CC0CBD
:10174000DD1CC20ED31EB601660F771F660F771F12
:10175000AB0148595F4FFA0185919591A591B491DC
:101760008E159F05A007B107E9F4FB01E459FF4F6F
:10177000859194919C8B8B8BFB01E259FF4F859156
:1017800094919E8B8D8BFB01E059FF4F8591949135
:10179000988F8F8BFB01EE58FF4F859194919A8F14
:1017A000898F06C02F5F3F4F2C30310509F0C6CF1F
:1017B0008F89988D892B09F449C04C85463108F0F2
:1017C0003DC090916800483010F484E005C04E3070
:1017D00010F082E001C081E0892B809368004830DE
:1017E00028F4EDE6F0E0ADE6B0E00BC04E3028F0B6
:1017F000ECE6F0E0ACE6B0E004C0EBE6F0E0ABE62F
:10180000B0E05081483040F481E090E002C0880FA1
:10181000991F4A95E2F710C0242F30E04E3018F49B
:101820002850304002C02E50304081E090E002C08D
:10183000880F991F2A95E2F7852B8C93898D9A8DB5
:1018400020E001972FEF8F3F9207D9F7CE010E943A
:101850008E0ADF91CF911F910F91FF90EF90DF9053
:10186000CF900895FC014485463180F5483028F436
:10187000EDE6F0E0ADE6B0E00BC04E3028F4EBE66C
:10188000F0E0ABE6B0E004C0ECE6F0E0ACE6B0E0DF
:101890005081483040F481E090E002C0880F991FE9
:1018A0004A95E2F710C0242F30E04E3018F428504B
:1018B000304002C02E50304081E090E002C0880FDE
:1018C000991F2A95E2F7809585238C930895FC0152
:1018D00083E891E091838083CF010E94320C0895C8
:1018E00020917402309175022817390731F49091D4
:1018F000B7028091B602981719F42FEF3FEF0FC08F
:10190000E091B702F0E0EA58FD4F20818091B702E4
:1019100090E001968F7390708093B70230E0C90118
:10192000089520917402309175022817390719F033
:1019300020E030E00EC08091B6022091B70290E026
:10194000805C9F4F821B910960E470E00E94D0137D
:101950009C01C90108950F931F93DC0159968D9145
:101960009C915A97892B49F481E090E013969C93BF
:101970008E93129720E030E097C00FB7F8945B96F3
:101980008C915B975196ED91FC91529750962C91CA
:10199000509781FF8DC08081822B808359968D91D5
:1019A0009C915A97059620E001972FEF8F3F920761
:1019B000D9F75B968C915B9781FF35C031E040E0B1
:1019C00050E070E010E0832F90E08623972351963B
:1019D000ED91FC91529750962C915097892B29F0BC
:1019E000808120952823208303C08081822B8083DF
:1019F00059968D919C915A97212F01972FEF8F3FE8
:101A00009207D9F7330F4F5F5F4F48305105D9F632
:101A10005196ED91FC915297908150968C915097F0
:101A20008095892333C031E040E050E070E010E061
:101A3000832F90E0862397235196ED91FC91529746
:101A400050962C915097892B21F08081822B808396
:101A500004C0808120952823208359968D919C91E4
:101A60005A97212F01972FEF8F3F9207D9F7330F06
:101A70004F5F5F4F48305105D9F65196ED91FC917B
:101A80005297808150969C915097892B80830FBFED
:101A900059968D919C915A9720E001972FEF8F3F97
:101AA0009207D9F721E030E0C9011F910F91089505
:101AB000808120952823208371CF2091740230915A
:101AC00075022817390749F49FB7F8941092B602A7
:101AD0008091B6028093B7029FBF0895209174024F
:101AE000309175022817390731F49091B70280912F
:101AF000B602981719F42FEF3FEF0AC0E091B70232
:101B0000F0E0EA58FD4F8081282F332727FD3095DC
:101B1000C90108951F93CF93DF93EC01162F862FF1
:101B200060E00E949E108B8D81FD04C0812F61E0DA
:101B30000E94F1101C87212F30E0C901865D9E4F65
:101B4000FC0184918D872A5E3E4FF9016491E62F56
:101B5000F0E0EE0FFF1FE45FFE4F859194919F87A9
:101B60008E87DF91CF911F910895FF920F931F935E
:101B70008C01F62E862F61E00E949E108F2D61E071
:101B80000E94F1108F2D90E0FC01E65DFE4FE49184
:101B9000D8015096EC9350978A5E9E4FFC01649159
:101BA000E62FF0E0EE0FFF1FEE5FFE4F8591949160
:101BB00052969C938E9351971F910F91FF90089589
:101BC000FF920F931F938C01F62EFC011382128259
:101BD00088EE93E0A0E0B0E084839583A683B7838A
:101BE00083E891E091838083148A138A168A158A88
:101BF000108E178A128E118E838D2170220F8C7F8A
:101C0000822B838FC801642F0E94B50DC8016F2DF0
:101C10000E948A0D1F910F91FF900895FC0184810D
:101C200095816817790748F40190F081E02D30978D
:101C300021F0E60FF71F8081089580E008950F934B
:101C40001F93CF93DF93EC018B016F5F7F4F8881F0
:101C500099810E942415009711F480E005C09983B2
:101C600088831B830A8381E0DF91CF911F910F91BD
:101C70000895CF93DF93EC0188819981892B29F016
:101C80008A819B818617970760F4CE010E941F0E00
:101C9000882341F08C819D81892B19F4E881F98199
:101CA000108281E0DF91CF910895EF92FF920F9320
:101CB0001F93CF93DF93EC017B016C817D81E11455
:101CC000F104C1F04115510599F08A01060F171F63
:101CD000B8010E94390E882369F0888199812C818E
:101CE0003D81820F931FB7010E94FB151D830C835A
:101CF00081E001C080E0DF91CF911F910F91FF90B3
:101D0000EF900895EF92FF920F931F93DF93CF937D
:101D1000CDB7DEB727970FB6F894DEBF0FBECDBFA5
:101D20007C01CB018E010F5F1F4FB8014AE050E0EC
:101D30000E940216F80101900020E9F73197E01B9C
:101D4000F10BC701B801AF010E94550E27960FB6DF
:101D5000F894DEBF0FBECDBFCF91DF911F910F91E1
:101D6000FF90EF9008956115710511F480E00895DA
:101D7000DB010D900020E9F71197A61BB70BAD0111
:101D80000E94550E0895CF93DF93EC0188819981CD
:101D9000009711F00E94CC14198218821D821C82B7
:101DA0001B821A82DF91CF910895EF92FF920F93D9
:101DB0001F93CF93DF93EC017B018A01BA010E944C
:101DC000390E882321F4CE010E94C30E07C01D8363
:101DD0000C8388819981B7010E94FB15CE01DF91A8
:101DE000CF911F910F91FF90EF900895CF93DF93C4
:101DF000EC01198218821B821A821D821C821E82AB
:101E00006115710551F0DB010D900020E9F7119784
:101E1000A61BB70BAD010E94D50EDF91CF9108959F
:101E20000F931F93182F092F6115710559F0DB01CE
:101E30000D900020E9F71197A61BB70BAD010E948A
:101E4000D50E02C00E94C30E812F902F1F910F91BB
:101E50000895EF92FF920F931F93DF93CF93CDB727
:101E6000DEB762970FB6F894DEBF0FBECDBF8C0110
:101E7000CB01F80111821082138212821582148222
:101E800016827E010894E11CF11CB70150E00E940B
:101E90000216C801B7010E94100F62960FB6F8949F
:101EA000DEBF0FBECDBFCF91DF911F910F91FF908D
:101EB000EF900895FC01808191810E94CC140895D7
:101EC000CF93DF930E9403100E949A04C8E6D6E0E5
:101ED0000E94FF042097E1F30E946806F9CF1F9249
:101EE0000F920FB60F9211242F933F938F939F93CE
:101EF000AF93BF938091BC029091BD02A091BE02AE
:101F0000B091BF023091C0020196A11DB11D232FD7
:101F10002D5F2D3720F02D570196A11DB11D209367
:101F2000C0028093BC029093BD02A093BE02B09306
:101F3000BF028091B8029091B902A091BA02B0910B
:101F4000BB020196A11DB11D8093B8029093B90206
:101F5000A093BA02B093BB02BF91AF919F918F91B2
:101F60003F912F910F900FBE0F901F9018959FB724
:101F7000F8942091B8023091B9024091BA02509180
:101F8000BB0286B5A89B06C08F3F21F02F5F3F4F55
:101F90004F4F5F4F9FBF542F432F322F2227280FC1
:101FA000311D411D511D82E0220F331F441F551F5B
:101FB0008A95D1F7B901CA010895EF92FF920F9364
:101FC0001F93CF93DF937B018C010E94B70FEB012E
:101FD0000EC00E94B70F6C1B7D0B685E7340C8F388
:101FE0000894E108F10801091109C851DC4FE11416
:101FF000F1040105110569F7DF91CF911F910F9150
:10200000FF90EF900895789484B5826084BD84B584
:10201000816084BD85B5826085BD85B5816085BDE3
:10202000EEE6F0E0808181608083E1E8F0E01082FC
:10203000808182608083808181608083E0E8F0E03D
:10204000808181608083E1EBF0E080818460808327
:10205000E0EBF0E0808181608083EAE7F0E080815E
:1020600084608083808182608083808181608083BE
:102070008081806880831092C10008951F93CF9360
:10208000DF93182FEB0161E00E949E10209709F466
:102090004AC0CF3FD10509F449C0E12FF0E0E25C2E
:1020A000FE4F84918330C1F0843028F4813051F0A8
:1020B0008230B1F50CC0863019F1873049F1843097
:1020C00079F514C084B5806884BDC7BD33C084B5BC
:1020D000806284BDC8BD2EC08091800080688093DE
:1020E0008000D0938900C093880024C08091800034
:1020F000806280938000D0938B00C0938A001AC0C6
:102100008091B00080688093B000C093B30012C08B
:102110008091B00080628093B000C093B4000AC088
:10212000C038D1051CF4812F60E002C0812F61E02E
:102130000E94F110DF91CF911F910895482F50E038
:10214000CA01865D9E4FFC0124914A5E5E4FFA01F2
:1021500084918823C1F0E82FF0E0EE0FFF1FE850D4
:10216000FF4FA591B491662341F49FB7F8948C91E9
:10217000209582238C939FBF08959FB7F8948C91EC
:10218000822B8C939FBF0895833071F0843028F4A4
:102190008130A1F0823021F514C08630B1F0873053
:1021A000D1F08430E9F404C0809180008F7703C0BF
:1021B000809180008F7D80938000089584B58F7713
:1021C00002C084B58F7D84BD08958091B0008F7763
:1021D0008093B00008958091B0008F7D8093B0000F
:1021E0000895FF920F931F93F62E482F50E0CA01D7
:1021F000825C9E4FFC012491CA01865D9E4FFC01CA
:1022000014914A5E5E4FFA0104910023C9F0222323
:1022100019F0822F0E94C410E02FF0E0EE0FFF1F94
:10222000EE5FFE4FA591B4919FB7F894FF2021F483
:102230008C911095812302C08C91812B8C939FBF30
:102240001F910F91FF9008950F931F93482F50E017
:10225000CA01825C9E4FFC012491CA01865D9E4F9B
:10226000FC0104914A5E5E4FFA011491112319F4A6
:1022700020E030E015C0222319F0822F0E94C41004
:10228000812F90E0880F991F845F9E4FFC01A591DC
:10229000B4918C9120E030E0802311F021E030E017
:1022A000C9011F910F910895BF92CF92DF92EF92D3
:1022B000FF920F931F93CF93DF93E82EF62EB42E49
:1022C000C7E0D0E0022F10E087E0C82ED12CBB2061
:1022D00059F4B6016C1B7D0BC80102C0959587951A
:1022E0006A95E2F7BC0107C0B8010C2E02C07595D3
:1022F00067950A94E2F761708E2D0E94F1108F2D80
:1023000061E00E94F1108F2D60E00E94F110219792
:102310009FEFCF3FD907D9F6DF91CF911F910F9152
:10232000FF90EF90DF90CF90BF9008955058BB275B
:10233000AA270ED075C166D130F06BD120F031F4F0
:102340009F3F11F41EF45BC10EF4E095E7FB51C111
:10235000E92F77D180F3BA176207730784079507CF
:1023600018F071F49EF58FC10EF4E0950B2EBA2F84
:10237000A02D0B01B90190010C01CA01A00111248B
:10238000FF27591B99F0593F50F4503E68F11A1637
:10239000F040A22F232F342F4427585FF3CF4695C8
:1023A00037952795A795F0405395C9F77EF41F16EA
:1023B000BA0B620B730B840BBAF09150A1F0FF0FB4
:1023C000BB1F661F771F881FC2F70EC0BA0F621FA0
:1023D000731F841F48F4879577956795B795F79590
:1023E0009E3F08F0B3CF9395880F08F09927EE0F22
:1023F000979587950895D9D008F481E008950CD079
:102400000FC107D140F0FED030F021F45F3F19F04A
:10241000F0C0511139C1F3C014D198F39923C9F315
:102420005523B1F3951B550BBB27AA2762177307DA
:10243000840738F09F5F5F4F220F331F441FAA1F8E
:10244000A9F333D00E2E3AF0E0E830D0915050404E
:10245000E695001CCAF729D0FE2F27D0660F771FFC
:10246000881FBB1F261737074807AB07B0E809F0DE
:10247000BB0B802DBF01FF2793585F4F2AF09E3F73
:10248000510568F0B6C000C15F3FECF3983EDCF345
:10249000869577956795B795F7959F5FC9F7880FEC
:1024A000911D9695879597F90895E1E0660F771F3E
:1024B000881FBB1F621773078407BA0720F0621BCF
:1024C000730B840BBA0BEE1F88F7E095089504D0C8
:1024D0006894B111D9C00895BCD088F09F5790F08E
:1024E000B92F9927B751A0F0D1F0660F771F881F39
:1024F000991F1AF0BA95C9F712C0B13081F0C3D054
:10250000B1E00895C0C0672F782F8827B85F39F0F1
:10251000B93FCCF3869577956795B395D9F73EF497
:1025200090958095709561957F4F8F4F9F4F08953F
:10253000E89409C097FB3EF490958095709561955D
:102540007F4F8F4F9F4F9923A9F0F92F96E9BB2713
:102550009395F695879577956795B795F111F8CF8F
:10256000FAF4BB0F11F460FF1BC06F5F7F4F8F4FFA
:102570009F4F16C0882311F096E911C0772321F0F0
:102580009EE8872F762F05C0662371F096E8862F88
:1025900070E060E02AF09A95660F771F881FDAF7DF
:1025A000880F9695879597F90895990F0008550F0C
:1025B000AA0BE0E8FEEF16161706E807F907C0F0C9
:1025C00012161306E407F50798F0621B730B840BD1
:1025D000950B39F40A2661F0232B242B252B21F4AB
:1025E00008950A2609F4A140A6958FEF811D811D4B
:1025F000089597F99F6780E870E060E008959FEF85
:1026000080EC089500240A94161617061806090689
:10261000089500240A941216130614060506089558
:10262000092E0394000C11F4882352F0BB0F40F4E0
:10263000BF2B11F460FF04C06F5F7F4F8F4F9F4F20
:10264000089557FD9058440F551F59F05F3F71F0A2
:102650004795880F97FB991F61F09F3F79F0879509
:102660000895121613061406551FF2CF4695F1DF92
:1026700008C0161617061806991FF1CF8695710522
:10268000610508940895E894BB2766277727CB0156
:1026900097F908958ADF08F48FEF08950BD0C0CF23
:1026A000B1DF28F0B6DF18F0952309F0A2CFA7CF4D
:1026B0001124EACFC6DFA0F3959FD1F3950F50E028
:1026C000551F629FF001729FBB27F00DB11D639FE4
:1026D000AA27F00DB11DAA1F649F6627B00DA11D8A
:1026E000661F829F2227B00DA11D621F739FB00D30
:1026F000A11D621F839FA00D611D221F749F3327A0
:10270000A00D611D231F849F600D211D822F762F38
:102710006A2F11249F5750408AF0E1F088234AF035
:10272000EE0FFF1FBB1F661F771F881F9150504081
:10273000A9F79E3F510570F05CCFA6CF5F3FECF349
:10274000983EDCF3869577956795B795F795E7956D
:102750009F5FC1F7FE2B880F911D9695879597F97E
:102760000895629FD001739FF001829FE00DF11DDB
:10277000649FE00DF11D929FF00D839FF00D749FFB
:10278000F00D659FF00D9927729FB00DE11DF91FA7
:10279000639FB00DE11DF91FBD01CF011124089504
:1027A00097FB092E07260AD077FD04D02ED006D03D
:1027B00000201AF4709561957F4F0895F6F7909573
:1027C00081959F4F0895A1E21A2EAA1BBB1BFD0104
:1027D0000DC0AA1FBB1FEE1FFF1FA217B307E40700
:1027E000F50720F0A21BB30BE40BF50B661F771F58
:1027F000881F991F1A9469F7609570958095909538
:102800009B01AC01BD01CF010895AA1BBB1B51E187
:1028100007C0AA1FBB1FA617B70710F0A61BB70B50
:10282000881F991F5A95A9F780959095BC01CD01F5
:102830000895EE0FFF1F0590F491E02D0994CF93BA
:10284000DF93BC018230910510F462E070E0A0914A
:10285000C302B091C402ED01E0E0F0E040E050E0DE
:1028600021C0888199818617970769F48A819B81A5
:10287000309719F09383828304C09093C4028093AD
:10288000C302FE0134C06817790738F441155105B9
:1028900019F08417950708F4AC01FE018A819B8129
:1028A0009C01E9012097E9F641155105A9F1CA01FA
:1028B000861B970B049708F4BA01E0E0F0E02AC009
:1028C0008D919C91119784179507F9F464177507FA
:1028D00081F412968D919C911397309719F0938300
:1028E000828304C09093C4028093C302FD01329698
:1028F0004FC0CA01861B970BFD01E80FF91F6193BA
:10290000719302978D939C9343C0FD0182819381C3
:102910009C01D9011097A1F68091C1029091C20249
:10292000892B41F48091490190914A019093C20210
:102930008093C10240914B0150914C0141155105CA
:1029400041F44DB75EB78091470190914801481B13
:10295000590B2091C1023091C20224173507B0F4FF
:10296000CA01821B930B8617970780F0AB014E5F5D
:102970005F4F8417950750F0420F531F5093C202C8
:102980004093C102F9016193719302C0E0E0F0E06D
:10299000CF01DF91CF910895CF93DF93009709F492
:1029A00050C0EC0122971B821A82A091C302B09101
:1029B000C402109709F140E050E0AC17BD0708F1E0
:1029C000BB83AA83FE0121913191E20FF31FAE1761
:1029D000BF0779F48D919C911197280F391F2E5FB5
:1029E0003F4F3983288312968D919C9113979B8337
:1029F0008A834115510571F4D093C402C093C30278
:102A000020C012968D919C911397AD01009711F003
:102A1000DC01D3CFFA01D383C28321913191E20F3C
:102A2000F31FCE17DF0769F488819981280F391FBA
:102A30002E5F3F4FFA01318320838A819B819383EC
:102A40008283DF91CF910895A0E0B0E0EAE2F5E162
:102A50000C9439168C01009729F4CB010E941F14A5
:102A60008C01BAC09EEFE92E9FEFF92EE00EF11E09
:102A70005801A60EB71EAE14BF0408F4ABC08EEF0B
:102A8000882E8FEF982E8A0C9B1CE7014881598174
:102A900046175707B8F04530510508F49DC0CA01E4
:102AA00004978617970708F497C042505040461B7A
:102AB000570BF4015183408379836883C5010E94D9
:102AC000CC148AC06B01C41AD50AE091C302F091FC
:102AD000C402A0E0B0E0C0E0D0E042C0E815F905D3
:102AE000A1F5208131812C153D0578F1C9010296AF
:102AF0008C159D05A8F04E5F5F4F420F531FE701F5
:102B00005983488322813381109729F013963C938F
:102B10002E93129761C03093C4022093C3025CC00D
:102B2000225030402C193D0931832083109729F021
:102B30001396FC93EE93129704C0F093C402E093B3
:102B4000C302F7017183608347C080819181C817F8
:102B5000D90708F4EC01DF01828193819C01F9011E
:102B6000309709F0BBCF400F511F8091C102909167
:102B7000C20284179507E9F4C617D707D0F420914D
:102B80004B0130914C012115310541F42DB73EB771
:102B90008091470190914801281B390BA216B3067A
:102BA000C8F4B092C202A092C102E701798368839F
:102BB00013C0CB010E941F14EC01009759F0F701DC
:102BC00040815181B8010E94F215C8010E94CC14C5
:102BD0008E0102C000E010E0C801CDB7DEB7ECE026
:102BE0000C945516FB01DC0102C001900D9241507E
:102BF0005040D8F70895FB01DC0101900D920020B0
:102C0000E1F70895FB019F01E8944230C4F045329A
:102C1000B4F44A3029F497FB1EF4909581959F4FA8
:102C2000642F77270E940514805D8A330CF0895D3C
:102C30008193CB010097A1F716F45DE251931082C6
:102C4000C9010C942316DC01FC01672F71917723D5
:102C5000E1F7329704C07C916D9370836291AE1757
:102C6000BF07C8F308952F923F924F925F926F92E1
:102C70007F928F929F92AF92BF92CF92DF92EF920C
:102C8000FF920F931F93CF93DF93CDB7DEB7CA1B8D
:102C9000DB0B0FB6F894DEBF0FBECDBF09942A88B8
:102CA000398848885F846E847D848C849B84AA8460
:102CB000B984C884DF80EE80FD800C811B81AA81ED
:102CC000B981CE0FD11D0FB6F894DEBF0FBECDBFB8
:102CD000ED01089511E0C6E5D1E004C0FE010E94B7
:0E2CE0001B142296C835D107C9F7F894FFCF10
:102CEE002E0041636B204572726F72203200416379
:102CFE006B204572726F7220300041636B204572FB
:102D0E00726F72203100003230002D003000200032
:102D1E003A0009000A00462000204F4646200020B7
:102D2E0048454154002E002000C502000003000556
:102D3E00000A00020003000E000F0010001100092F
:102D4E00000400050006000000B642CDCCCC3D00CC
:102D5E00000000B60742084A077B075B07A407007E
:102D6E00000000AB0C4208910C700C6E0D5D0D0056
:00000001FF
